:020000040800F2
:1000000030A20020590F00088D0100088F01000860
:10001000910100089301000895010008000000000C
:100020000000000000000000000000009701000830
:1000300029020008000000002B02000899010008B6
:10004000B1010008B1010008B1010008B1010008C8
:10005000B1010008B1010008B1010008B1010008B8
:10006000B1010008B1010008B1010008B1010008A8
:10007000B1010008B1010008B1010008B101000898
:10008000B1010008B1010008B1010008B101000888
:10009000B1010008B1010008B1010008B101000878
:1000A000B1010008B1010008B1010008B101000868
:1000B000B1010008B1010008B1010008B101000858
:1000C0004FF04023D3F800241206FBD5C3F80404F4
:1000D000704708B5411E11F8010F00B908BDFFF7C0
:1000E000EFFFF8E70A4A1368013310B51360094AB5
:1000F00013680446013308481360FFF7EAFF2046FF
:10010000FFF7E7FFBDE810400448FFF7E2BF00BF7C
:1001100028020020240200207C100008B7160008E6
:100120000D4A38B51368013313600C4A136805464D
:1001300001330B4813600C46FFF7CBFF2846FFF74F
:10014000C8FF0848FFF7C5FF2046FFF7C2FFBDE81C
:1001500038400548FFF7BDBF2802002020020020DC
:10016000841000087C160008B7160008024A1368BD
:1001700001331360704700BF04020020024A136875
:1001800001331360704700BF00020020FEE7FEE766
:10019000FEE7FEE7FEE77047044AD2E9003113F5B7
:1001A0007A7341F10001C2E9003170471802002062
:1001B000FEE700BEFDE730B5011E85B01ADA2D203E
:1001C000FFF77EFF494201AB00241D460A20B1FB28
:1001D000F0F200FB1211303103F8011B013411461B
:1001E000002AF4D1013C285DFFF76AFF002CF9D109
:1001F00005B030BDE7D1302005B0BDE83040FFF795
:100200005FBF0000074A0023C158914203D1043365
:10021000B3F5807FF8D1C3F5807064235843C0F3F1
:1002200007207047EFBEADDE7047704770B572B6FD
:10023000002300F11C04142505FB03F2A65C5EB943
:1002400085189CB20FC905F10C0686E80F00012342
:100250002B7762B6204670BD0133082BECD14FF6E8
:10026000FF74F6E72DE9F04F014687B072B6D0E98A
:1002700000B001F5A47501901827002007FB00F4D9
:100280002E5D002E5FD001300828F7D1002091F8B4
:10029000313173B191F83021454C182303FB021220
:1002A000D2E94E32019913EB0B0341EB0202C4E990
:1002B000003262B607B0BDE8F08F4FF0000991F848
:1002C00030E1CDF80C90A5B1182404FB0EF401EB3D
:1002D00004080494D8F83841D8F83C710294A2423A
:1002E00073EB0704029C1AD2A41A67EB0307C8E950
:1002F0004E47182404FB0010C0E94E23059B06F866
:1003000003E08AF80150B9F1000F16D0039B634354
:100310001133F21806F803C00123537045E0141B93
:1003200063EB0703049FCDF80CE011372246F41964
:10033000A94616F807E06578C5E7012381F830C1C2
:1003400081F8313131E00C44012584F84851109D89
:10035000C4F84051119DC4F84451019C1BEB0205A7
:1003600044EB0304AB45019D75EB040401D3324615
:1003700033461824444304F1110501F59C76059594
:1003800006EB050A91F831515FFA80FC002D94D1FB
:10039000012081F8310181F830C10819C0E94E23EC
:1003A0009AF801300BB18AF8015001206FE700BFC5
:1003B00010020020D1F880300A6CBFF35B8F9A42A4
:1003C00002D100230371704751F82320013303F059
:1003D0000303BFF35B8FC1F8803001230260F1E7B4
:1003E00010B5026CD0F88040BFF35B8F531C03F054
:1003F0000303A34207D0096840F82210BFF35B8FC4
:100400000364012010BD0020FCE72DE9F7430589B6
:100410000022013505F00705944696461346164618
:1004200003274FF01408AC1804F0070408FB040974
:1004300099F81C10013901290FD899F815100139C4
:10044000C9B2FD2909D999F814100129A4B213D809
:1004500083B1B94201D226460F460132082AE2D1C1
:10046000BCF1000F1CD05BB3012F29D8ADF804609C
:10047000012317E00123EEE7022906D1BCF1000FAA
:10048000EBD1A6464FF0010CE7E7002BE5D1BCF11C
:10049000000FE2D10329E0D126460F460123DCE715
:1004A000002BE3D18DF80630BDF80430002063F353
:1004B0000F00BDF8063063F31F4003B0BDE8F083C2
:1004C000A0F808E07646D1E789B2072907D81423B7
:1004D00003FB0100007F003818BF01207047002097
:1004E00070470000F7B505468EB272B63146FFF789
:1004F000EBFF074620B9002762B6384603B0F0BDCF
:10050000D5F8F801019010F47F0F83B201D09E421C
:10051000F1D0094B0FCB142404FB06544FF0000C10
:1005200084F81CC00C3484E80F0005EB8605C5F880
:10053000ECC0C5F80CC1DFE7FC0F000813B504469A
:10054000FFF763FF10F47F0F019010D094F8FA3199
:100550002BB1B4F8F821BDF804309A4205D04FF021
:10056000E0234FF08052C3F8042D02B010BD034BBE
:100570001B78002BF9D030BFF7E700BF080200203E
:100580002DE9F0470446D0E90010891843EB00003C
:10059000C4E9001094F830E194F831714FF0180C70
:1005A0004FF000084FF00009002F43D052EA03013A
:1005B00040D00CFB0EF6A019D0E94E158A4273EB21
:1005C000050A07D2891A65EB03050022C0E94E151A
:1005D0001346E9E7511A06F249160A4604EB0601EA
:1005E000C0E94E8914F806E04F7863EB0503DBE7BA
:1005F00094F830317343E218D2E94E10014314D11C
:10060000D2E9501003F59C73B2F84921A4F83021C7
:10061000E218E55055609560D5601574957401B188
:10062000884794F83131002BE2D12046FFF786FF4E
:10063000BDE8F08718260025F3E789B2072930B511
:1006400019D800EB810450F82130BFF35B8F03EA27
:10065000020080B1BFF35B8F23EA020554E8001F5C
:10066000994203D144E8005CBCF1000FBFF35B8FFB
:1006700002D00B46EBE7002030BD00002DE9F0432F
:10068000C34AC448D2F8403843F40033ADF54B7D3B
:10069000C2F840384FF0402340F28362C3F8082488
:1006A00042F20802C3F80C244FF0E023BA4A5A6120
:1006B00000229A6107221A61B84B01221A70FFF7D3
:1006C00008FDB748FFF705FDB648FFF702FDB4483F
:1006D000FFF7FFFCB448FFF7FCFCB44B0FCB0CACAE
:1006E00084E80F00B2482146FFF7A0FD4FF6FF73E4
:1006F0001FFA80F80DF22F25984525F0FF050746D3
:1007000000F0BD82AB48FFF7EDFCA94E39463046FC
:10071000FFF7DAFE002800F0B782142303FB08631A
:100720009B69002B00F0B082A348FFF7DBFCA048D8
:100730003946FFF7C9FE002800F0AB82142303FB03
:10074000086898F81430022B40F0A3829B48FFF70A
:10075000C9FC97483946FFF7C5FE002800F09E8285
:100760009748FFF7BFFC92483946FFF7BBFE0028C9
:1007700040F099829348FFF7B5FC9348FFF7A9FC36
:10078000924B0FCB84E80F0089482146FFF74EFDBE
:100790001FFA80F8B8F1070F07460DD8BFF35B8F3B
:1007A00008F13B0306EB830353E8001F41F001010E
:1007B00043E80012002AF7D17D483946FFF784FE4E
:1007C00008B3142303FB08631A7F032A1BD172B6F4
:1007D0001A7F032A16D1B8F1070F13D808F13B028C
:1007E00056F82210BFF35B8F06EB8806D6F80C2173
:1007F000114207D001221A776D480023C6F80C3148
:10080000FFF79CFE62B6724801223946FFF715FFDA
:10081000012840F04D826F48FFF764FC6C480122CC
:100820003946FFF70AFF002840F047826A48FFF781
:1008300059FC39465E48FFF755FE6848FFF749FC0A
:10084000674B23600023636094E803004FF47A72DF
:100850008DE8030000235648FFF704FD002800F050
:1008600031826048FFF73EFC5F4E51484FF4FA7208
:100870000023FFF785FE3768002F40F028825B4891
:10088000FFF730FC4A484FF416720023FFF778FE5A
:100890003668012E40F02C825548FFF723FC55485E
:1008A000FFF717FCC0220021284600F059FB29461B
:1008B0002046FFF77FFD2379002B40F0A3824E48AE
:1008C000FFF710FC2B6CD5F88020013303F00303F5
:1008D0009A4200F09C824948FFF704FC0123236000
:1008E00021462846FFF77CFD002800F09582444809
:1008F000FFF7F8FB0223236021462846FFF770FD2F
:10090000002800F08E823F48FFF7ECFB03232360B2
:1009100021462846FFF764FD002800F087823A4808
:10092000FFF7E0FB0423236021462846FFF758FD2C
:10093000002840F080823548FFF7D4FB2946204646
:10094000FFF738FD2379002B00F07A822368012B12
:1009500040F076822E48FFF7C5FB29462046FFF778
:1009600029FD23791BB12368022B00F06E822949EF
:100970002948FFF7D5FB29462046FFF71BFD2379C1
:10098000002B4BD02368032B00F0638246E000BFAE
:1009900000300240B71600083F190100080200208D
:1009A000281600088C100008B21000080C1000086F
:1009B00000000020D1100008FA10000821110008E2
:1009C00053110008681100088B1100081C10000862
:1009D000EC000020A9110008DF110008091200082E
:1009E0006D010008201200080402002033120008E4
:1009F00059120008711200088C120008BC1200087D
:100A0000E8120008011300081A1300083313000845
:100A10005B1300087A13000893130008BD49BE4811
:100A2000FFF77EFB29462046FFF7C4FC2379002B05
:100A300040F01382B948FFF755FBB948B94EFFF7AC
:100A400048FBB948FFF74EFBB848FFF74BFBB848E7
:100A5000FFF748FBB748FFF745FBB748FFF739FBFF
:100A600096E80F000DF1100C8CE80F0006F1100352
:100A70000FCB08AF203687E80F0096E80F0084E818
:100A80000F006146AD48FFF7D1FB39468146AB48C0
:100A9000FFF7CCFB21468046A848FFF7C7FB064678
:100AA000A648FFF7B2FC10F47F0F039000F0DA8144
:100AB000BDF80C20B3B29A4240F0D481A048FFF7B1
:100AC00011FB49469D48FFF70DFD41469B48FFF746
:100AD00009FD31469948FFF705FD9A48FFF7F9FAF5
:100AE0009949224600230133402B42F8041BFAD1D6
:100AF0002046FFF787FB0646002840F0B881934860
:100B0000FFF7F0FA924B2046C4E93C33C4E93E3388
:100B1000FFF778FB002800F0BB818E48FFF7E2FA70
:100B20008D4E8E48FFF7D5FA96E80F00103687E80D
:100B30000F0096E80F0084E80F0039467F48FFF762
:100B400075FB214606467D48FFF770FB00237B4975
:100B500004461A46087F00B101320133082B01F127
:100B60001401F7D1012A40F398817D48FFF7BAFAC2
:100B700031467248FFF7B6FC21467048FFF7B2FCD9
:100B80007848FFF7A6FAF822002105F1080000F0E6
:100B9000E7F94FF00063744819682A464123013B86
:100BA00040F080814FF0E023704C29606C60C3F806
:100BB000085DBFF34F8FBFF36F8F6D48FFF792FA59
:100BC0006C48FFF78FFAEB6B002B00F06E816A48E0
:100BD000FFF788FAAC63BFF34F8FAB6BA34240F0D3
:100BE00069816648FFF77EFAC5F8D840BFF34F8F9A
:100BF000D5F8D830A34240F062816148FFF772FA1D
:100C00004FF0E0234FF00062C3F8082D5D48FFF776
:100C100060FA5D48FFF75DFA5C48FFF75AFA5C48F6
:100C2000FFF757FA5B4B1868FFF7C5FA5A48FFF70A
:100C300050FA5A48FFF74DFA594B1868FFF7BBFABC
:100C40005548FFF746FA5748FFF743FA564B1C68DA
:100C50002046FFF7B0FA5048FFF73BFA002C40F06F
:100C600033815248FFF735FA5148FFF732FA003C1A
:100C70004FF0604318BF01241C6030BFFDE74D49B1
:100C80004D48FFF74DFA40E54C494D48FFF748FA0B
:100C90004DE54C494C48FFF743FA5AE54B494C485F
:100CA000FFF73EFA5FE54B494B48FFF739FA64E539
:100CB0004A494B48FFF734FAB0E54A494A48FFF73A
:100CC0002FFAB6E549494A48FFF72AFACCE54949DF
:100CD0004948FFF725FA0020FFF76DFA4748FFF76C
:100CE000F8F93846FFF767FA2B48FFF7F2F9C9E53C
:100CF00040494348FFF714FA0120FFF75CFA3F48E8
:100D0000FFF7E7F93046FFF756FA2348FFF7E1F916
:100D1000C5E500BF99130008B2130008B813000816
:100D2000D71300082C100008F81300080514000859
:100D300016140008271400083814000800000020CA
:100D40005D140008A9140008EFBEADDEC814000849
:100D500078563412E01400085C100008FD140008F6
:100D60001C15000844150008B30100087D010008A7
:100D700062150008761500088D150008AB150008EF
:100D8000F01500082616000853160008281600085B
:100D90006416000828020020B71600086D16000827
:100DA0002402002076160008200200207F1600088A
:100DB000BA160008EE100008D11000081111000842
:100DC000FA100008371100082111000883110008EB
:100DD000531100088211000868110008C0110008B2
:100DE000A9110008FF110008DF11000830120008E7
:100DF000201200084912000833120008531200089C
:100E00005912000831493248FFF78AF95AE5314949
:100E10003148FFF785F961E530493148FFF780F93E
:100E200068E530493048FFF77BF96FE52F493048D6
:100E3000FFF776F976E52F492F48FFF771F97DE541
:100E40002E492F48FFF76CF987E52E48FFF74AF93E
:100E500091E52D48FFF746F9E4E52C492C48FFF7CA
:100E60005FF9EAE52B492C48FFF75AF929E62B49A7
:100E70002B48FFF755F90020FFF79DF92948FFF7A8
:100E800028F93046FFF797F92748FFF722F939E6A6
:100E900026492748FFF744F942E626492648FFF746
:100EA0003FF965E642F8040B79E624492448FFF748
:100EB00037F98FE623492448FFF732F994E62349AE
:100EC0002348FFF72DF99BE62248CBE69F12000846
:100ED0008C120008D6120008BC120008EF1200089D
:100EE000E812000808130008011300082113000885
:100EF0001A13000848130008331300086113000890
:100F00005B13000893130008B2130008C81300080D
:100F1000B81300087A1400085D140008491200088C
:100F2000C814000853120008B7160008F51400088A
:100F3000E0140008391500081C1500089E1500086B
:100F40008D150008C1150008AB1500080016000833
:100F5000F01500089C16000808B5FFF78FFB00008D
:100F6000830730B546D08418844604E003F8011B9B
:100F70009D0704D09C46A4456346F7D130BD013A95
:100F80000244A2EB0C02032A29D9CCB204EB0424BC
:100F90000F2A04EB04442FD9A2F1100C2CF00F0CF3
:100FA00003F11005AC44C3E90044C3E90244103323
:100FB0006345F8D112F00C0F02F00F0E18D02EF08E
:100FC000030C9C44AEF104051A4642F8044B6245FA
:100FD000FBD125F0030404330EF003022344002A5E
:100FE000CCD0C9B21A4403F8011B9342FBD130BDE7
:100FF0007246F4E70346C6E79646E0E700000000C5
:101000000000000003FF0000F616000800000000CA
:101010000000000002FF00000017000800000000B0
:101020000000000002FF0000EB16000800000000B6
:101030000000000003FF0000E616000800000000AA
:101040000000000002FF0000E116000800000000A0
:101050000000000000FF0000D8160008000000009B
:101060000000000002FF0000D11600080000000090
:101070000000000002FF0000CA1600085B50415348
:10108000535D20005B4641494C5D20002020554DBA
:10109000492D4F5320436F6D70726568656E73699B
:1010A00076652052656E6F64652054657374730DA8
:1010B0000A000A2D2D2D205461736B204372656147
:1010C00074696F6E205465737473202D2D2D0D0A75
:1010D000006372656174655F7461736B207265741F
:1010E00075726E732076616C69642069640074693E
:1010F000642E76616C69642829006765745F746189
:10110000736B5F6E616D65206E6F74206E756C6CB5
:10111000006E616D6520213D206E756C6C7074727F
:10112000007461736B207072696F726974792063E7
:101130006F7272656374007072696F203D3D207537
:101140006D693A3A5072696F726974793A3A5573B7
:1011500065720064656C6574655F7461736B2073A0
:10116000756363656564730064656C6574652069A7
:101170006E76616C6964207461736B206661696C62
:1011800073002164656C65746564000A2D2D2D2043
:101190004E6F74696669636174696F6E205465731C
:1011A0007473202D2D2D0D0A006E6F7469666963AE
:1011B0006174696F6E2064656C6976657265640040
:1011C00062697473203D3D20756D693A3A457665D4
:1011D0006E743A3A417564696F5265616479006E64
:1011E0006F74696669636174696F6E20636C6561B1
:1011F000726564206166746572207761697400624B
:10120000697473203D3D2030000A2D2D2D20546936
:101210006D6572205465737473202D2D2D0D0A0099
:1012200074696D6572207363686564756C656400CC
:101230006F6B0074696D6572206E6F7420666972E1
:101240006564206561726C790065787065637465AA
:1012500064200020676F74200074696D65722066D9
:101260006972656420617420646561646C696E658F
:10127000000A2D2D2D2053707363517565756520FF
:101280005465737473202D2D2D0D0A0071756575CD
:10129000652073746172747320656D7074790021B8
:1012A00071756575652E7472795F706F7028292E5F
:1012B0006861735F76616C75652829007175657565
:1012C000652068617320737061636520696E69745D
:1012D00069616C6C790071756575652E6861735F05
:1012E000737061636528290070757368203100711F
:1012F000756575652E7472795F707573682831290C
:10130000007075736820320071756575652E747292
:10131000795F70757368283229007075736820339F
:101320000071756575652E7472795F7075736828C4
:1013300033290070757368206661696C7320776863
:10134000656E2066756C6C002171756575652E740F
:1013500072795F7075736828342900706F7020315E
:1013600000762E6861735F76616C7565282920268A
:1013700026202A76203D3D203100762E6861735F5D
:1013800076616C75652829202626202A76203D3D29
:10139000203200706F70203200762E6861735F76A5
:1013A000616C75652829202626202A76203D3D205F
:1013B0003300706F70203300706F7020656D707433
:1013C00079206661696C730021762E6861735F769F
:1013D000616C75652829000A2D2D2D2052657375C5
:1013E0006C742F45787065637465642054657374FC
:1013F00073202D2D2D0D0A004F6B20686173207610
:10140000616C7565004F6B2076616C756520636F4C
:1014100072726563740045727220686173206E6F2A
:101420002076616C75650045727220636F6465207B
:10143000636F7272656374000A2D2D2D20507269DE
:101440006F72697479205363686564756C696E673F
:10145000205465737473202D2D2D0D0A0072656163
:101460006C74696D65207461736B2073656C656362
:10147000746564206669727374006E6578742E6892
:1014800061735F76616C75652829202626206E655C
:1014900078742E76616C75652829203D3D20745F37
:1014A00072742E76616C7565000A2D2D2D20537493
:1014B00061636B204D6F6E69746F72205465737435
:1014C00073202D2D2D0D0A00737461636B20696EDE
:1014D000697469616C6C79203025207573656400CE
:1014E000737461636B2075736167652064657465EF
:1014F0006374656400706374203E2030000A2D2DF3
:101500002D20666F725F656163685F7461736B2025
:101510005465737473202D2D2D0D0A00666F725F54
:10152000656163685F7461736B206974657261746F
:101530006573207461736B7300636F756E74203E06
:101540003D2032000A2D2D2D20566563746F7220C8
:101550005461626C65205465737473202D2D2D0DBC
:101560000A007461626C652062617365206E6F6E43
:101570002D7A65726F007461626C652070726F7095
:1015800065726C7920616C69676E65640068616E74
:10159000646C6572206E6F74206E756C6C006820D0
:1015A000213D206E756C6C7074720068616E646CA5
:1015B00065722073657420636F72726563746C79F1
:1015C0000076742E6765742856543A3A4578633A23
:1015D0003A50656E64535629203D3D2074657374FE
:1015E0005F637573746F6D5F68616E646C657200C4
:1015F0004952512068616E646C6572207365740095
:1016000076742E6765745F69727128333829203DBE
:101610003D20746573745F637573746F6D5F68618B
:101620006E646C6572000D0A3D3D3D3D3D3D3D3DA6
:101630003D3D3D3D3D3D3D3D3D3D3D3D3D3D3D3DDA
:101640003D3D3D3D3D3D3D3D3D3D3D3D3D3D3D3DCA
:101650000D0A002020546573742053756D6D6172FE
:10166000790D0A00546F74616C3A20200050617348
:101670007365643A20004661696C65643A20000D28
:101680000A2A2A2A20414C4C2054455354532050B6
:101690004153534544202A2A2A0D0A000D0A2A2ABA
:1016A0002A20534F4D452054455354532046414919
:1016B0004C4544202A2A2A0D0A00544553545F43BE
:1016C0004F4D504C4554450D0A007461736B5F6279
:1016D000007461736B5F61007265616C74696D6544
:1016E00000757365720069646C65006E6F7469667D
:1016F0005F74657374003C756E6E616D65643E0069
:0C170000746573745F7461736B0000000B
:10170C0000000000000000000000000000000000CD
:10171C000000000003FF0000F616000800000000A7
:10172C00000000000000000003FF0000F616000897
:10173C0000000000000000000000000003FF00009B
:10174C00F616000800000000000000000000000079
:10175C0003FF0000F6160008000000000000000067
:10176C000000000003FF0000F61600080000000057
:10177C00000000000000000003FF0000F616000847
:10178C0000000000000000000000000003FF00004B
:10179C00F616000800000000000000000000000029
:1017AC0003FF0000F6160008000000000000000017
:1017BC00000000000000000000000000000000001D
:1017CC00000000000000000000000000000000000D
:1017DC0000000000000000000000000000000000FD
:1017EC0000000000000000000000000000000000ED
:1017FC0000000000000000000000000000000000DD
:10180C0000000000000000000000000000000000CC
:10181C0000000000000000000000000000000000BC
:10182C0000000000000000000000000000000000AC
:10183C00000000000000000000000000000000009C
:10184C00000000000000000000000000000000008C
:10185C00000000000000000000000000000000007C
:10186C00000000000000000000000000000000006C
:10187C00000000000000000000000000000000005C
:10188C00000000000000000000000000000000004C
:10189C00000000000000000000000000000000003C
:1018AC00000000000000000000000000000000002C
:1018BC00000000000000000000000000000000001C
:1018CC00000000000000000000000000000000000C
:1018DC0000000000000000000000000000000000FC
:1018EC0000000000000000000000000000000000EC
:1018FC0000000000000000000000000000000000DC
:04000005080000C02F
:00000001FF
